:020000040800F2
:1000000070050020450100088D070008590500080B
:1000100089070008190300083B10000800000000D1
:10002000000000000000000000000000450800087B
:1000300099030008000000000108000859090008A1
:100040005F0100085F0100085F0100085F01000810
:100050005F0100085F0100085F0100085F01000800
:100060005F0100085F0100085F0100085F010008F0
:100070005F0100085F0100085F0100085F010008E0
:100080005F0100085F0100085F0100085F010008D0
:100090005F0100085F0100085F0100085F010008C0
:1000A0005F0100085F0100085F0100085F010008B0
:1000B000BD090008410A0008ED0A00085F010008B8
:1000C0005F0100085F0100085F0100085F01000890
:1000D0005F0100088D0E0008150F0008790F000859
:1000E0005F0100085F0100085F0100085F01000870
:1000F0005F0100085F0100085F0100085F01000860
:100100005F0100085F010008790B00085F0100082B
:100110005F0100085F0100085F0100085F0100083F
:100120005F0100085F0100085F0100085F0100082F
:10013000DFF80CD000F074F8004800476D18000894
:10014000700500200648804706480047FEE7FEE7A6
:10015000FEE7FEE7FEE7FEE7FEE7FEE7FEE7FEE777
:100160005D090008310100080649074A0868504344
:1001700043F23902104408604008704701490860A2
:10018000704700002C0100206D4EC641D2B201E044
:1001900000F8012B491EFBD270470022F6E710B58C
:1001A00013460A4604461946FFF7F0FF204610BDE5
:1001B000421C10F8011B0029FBD1801A70472DE961
:1001C000F05F0546002092469B46884606468146DB
:1001D00040241BE0284641464746224600F041F8AD
:1001E00053465A46C01A914110D31146184622462A
:1001F00000F028F82D1A67EB01084F46224601202F
:10020000002100F01FF817EB00094E41201EA4F159
:100210000104DFDC484631462A464346BDE8F09FEC
:10022000064C074D06E0E06840F0010394E8070043
:1002300098471034AC42F6D3FFF77EFF64330008D2
:1002400084330008202A04DB203A00FA02F100205F
:1002500070479140C2F1200320FA03F31943904004
:100260007047202A04DB203A21FA02F0002170476F
:1002700021FA02F3D040C2F120029140084319460E
:10028000704770B58C1810F8015B15F0070301D1A9
:1002900010F8013B2A1106D110F8012B03E010F8E9
:1002A000016B01F8016B5B1EF9D12B0705D400230C
:1002B000521E0DD401F8013BFAE710F8013BCB1AAE
:1002C000921C03E013F8015B01F8015B521EF9D5A3
:1002D000A142D8D3002070BD10B54FF4704104483E
:1002E00000F038F90F21034800F034F910BD000088
:1002F000000C01400010014010B54FF4704104485B
:1003000000F026F90F21034800F022F910BD00008B
:10031000000C01400010014000BFFEE710B504468C
:10032000FFF7DAFF322001F075F9092C2CD2DFE853
:1003300004F02B05090E13181C2126000020144977
:10034000086022E000201249091D08601DE000201D
:100350000F490831086018E000200D490C31086091
:1003600013E000200B4908600FE000200949091D37
:1003700008600AE0002007490831086005E0002015
:1003800004490C31086000E000BF00BF10BD000050
:1003900080012242B08121427047000008B5002050
:1003A00001F0B3F90020082380220146009001F0FB
:1003B00061FC4FF47A7001F02DF9002001F0A5F9ED
:1003C00010230CA20021084601F0B6FB082310A25E
:1003D0000221002001F01AFD08230FA204210020B1
:1003E00001F014FD08230EA20621002001F00EFDED
:1003F00008BD0000E5B08FE69E81E5AEA2E68993D8
:10040000E59CB0E9BCA0E68E8CE69CBA000000003A
:100410006C6966653A0000006C6576656C3A0000B0
:1004200073636F72653A00002DE9F04102460025C2
:100430000026002000230024002791F803C00CF0C0
:100440000F0591F803C00CF0100CBCF1000F03D0A5
:1004500091F802C04CEA050591F800C0BCF1000F0C
:1004600031D0146800202BE04FF0010C0CFA00F39F
:10047000B1F800C00CEA03069E4220D183004FF081
:100480000F0C0CFA03F7BC4305FA03FC4CEA040416
:1004900091F803C0BCF1280F06D14FF0010C0CFA03
:1004A00000FCC2F814C00AE091F803C0BCF1480F88
:1004B00005D14FF0010C0CFA00FCC2F810C0401C32
:1004C0000828D1D31460B1F800C0BCF1FF0F34DDAF
:1004D000546800202EE000F1080C4FF0010808FAE3
:1004E0000CF3B1F800C00CEA03069E4221D1830050
:1004F0004FF00F0C0CFA03F7BC4305FA03FC4CEA6F
:10050000040491F803C0BCF1280F05D100F1080CD8
:1005100008FA0CF8C2F8148091F803C0BCF1480F37
:1005200007D100F1080C4FF0010808FA0CF8C2F8E6
:100530001080401C0828CED35460BDE8F0810246EC
:10054000002093680B400BB1012000E000207047B1
:10055000416170470161704700BFFEE708B50121A6
:100560001C2000F05FF90F20ADF8000048208DF846
:10057000030069460948FFF757FF0120ADF8000066
:1005800069460748FFF750FF4FF47070ADF8000060
:1005900069460448FFF748FF08BD00000008014015
:1005A000000C01400010014010B5044614B10120B8
:1005B0005B4908705A480078002877D001215948D3
:1005C000FFF7BDFF50B302215648FFF7B8FF28B32D
:1005D00004215448FFF7B3FF00B308215148FFF747
:1005E000AEFFD8B140215048FFF7A9FFB0B180213C
:1005F0004D48FFF7A4FF88B14FF480714A48FFF7D8
:100600009EFF58B14FF400714748FFF798FF28B19B
:1006100001214648FFF793FF002847D10A2000F048
:10062000F9FF00203E49087001214048FFF787FF8D
:1006300008B9092010BD01213A48FFF780FF08B929
:100640000120F7E702213748FFF779FF08B90220B8
:10065000F0E704213348FFF772FF08B90320E9E708
:1006600008213048FFF76BFF08B90420E2E740217A
:100670002D48FFF764FF08B90520DBE780212A48F1
:10068000FFF75DFF08B90620D4E74FF480712648D4
:10069000FFF755FF10B90720CCE707E04FF40071D2
:1006A0002148FFF74CFFC8BB0820C3E701211D48C4
:1006B000FFF745FF012831D102211A48FFF73FFF1C
:1006C00001282BD104211748FFF739FF012825D134
:1006D00008211448FFF733FF01281FD14021124899
:1006E000FFF72DFF012819D180210F48FFF727FFC1
:1006F000012813D101020C48FFF721FF01280DD179
:1007000041020948FFF71BFF012807D101210748D3
:10071000FFF715FF012801D101490870002089E782
:100720005A0000200008014000100140000C014068
:1007300008B50121182000F075F84FF47040ADF8AD
:10074000000003208DF8020010208DF80300694698
:100750000948FFF769FE3F20ADF8000069460748E9
:10076000FFF762FEFFF7C8FD002005490860012081
:100770000449C1F8940108BD000C0140001001407B
:10078000900122420000224200BFFEE770470000B5
:1007900070B5002100230F22C47804B3154C2468DF
:1007A00004F4E064C4F5E064210AC1F10403CA4022
:1007B000447804FA03F184781440214309010E4C73
:1007C0000678A155047804F01F050124AC40057893
:1007D0006D11AD0005F1E025C5F8004109E0047890
:1007E00004F01F050124AC40044D0678761145F84D
:1007F000264070BD0CED00E000E400E080E100E088
:100800007047000029B1064AD2690243044BDA61FD
:1008100004E0034AD2698243014BDA617047000069
:100820000010024029B1064A92690243044B9A61C2
:1008300004E0034A92698243014B9A6170470000C9
:1008400000100240704710B500F002F810BD000023
:100850000CB50020019000903348006840F48030CF
:100860003149086000BF3048006800F40030009053
:100870000198401C0190009818B90198B0F5A06F3C
:10088000F1D12948006800F4003010B10120009037
:1008900001E0002000900098012843D1234800681F
:1008A00040F01000214908600846006820F003006D
:1008B00008600846006840F0020008601A48406876
:1008C000194948600846406848600846406840F456
:1008D000806048600846406820F47C104860084604
:1008E000406840F4881048600846006840F0807016
:1008F000086000BF0C48006800F000700028F9D0C4
:100900000948406820F003000749486008464068ED
:1009100040F00200486000BF0348406800F00C004F
:100920000828F9D10CBD0000001002400020024050
:10093000042808D14FF0E021096941F004014FF08B
:10094000E022116107E04FF0E021096921F0040184
:100950004FF0E022116170477047000010B5134856
:10096000006840F0010011490860084640681049DD
:1009700008400E494860084600680E4908400B4987
:1009800008600846006820F4802008600846406837
:1009900020F4FE0048604FF41F008860FFF753FF0B
:1009A0004FF000600449086010BD000000100240D4
:1009B0000000FFF8FFFFF6FE08ED00E010B5012192
:1009C000880700F0A4F930B10121880700F090F900
:1009D00001200149087010BD260000207FB50546A2
:1009E0000C4601210846FFF70DFFADF80850ADF8A1
:1009F00004400020ADF80A00ADF8060001A94FF050
:100A0000804000F0F1F90121880700F071F901221E
:100A10001146900700F08CF91C208DF8000003208F
:100A20008DF801008DF8020001208DF80300684662
:100A3000FFF7AEFE0121880700F05DF97FBD0000E1
:100A400010B50121044800F062F918B101210248F3
:100A500000F04EF910BD00000004004030B589B030
:100A600005460C4601210220FFF7CCFE012108209B
:100A7000FFF7D8FE0220ADF8200018208DF82300E3
:100A800003208DF8220008A91648FFF7CDFCADF829
:100A90001850ADF814400020ADF81A00ADF816005B
:100AA00005A9114800F0A0F96020ADF8040001206C
:100AB000ADF806000020ADF80A00ADF80C0001A961
:100AC000094800F03FF90821074800F079F90121B1
:100AD000054800F001F90121034800F00CF909B0C4
:100AE00030BD0000000C01400004004010B50121A1
:100AF000064800F00CF940B10121044800F0F8F874
:100B000003480068401C0249086010BD000800400E
:100B10002C0000201FB501210420FFF773FE4720A1
:100B2000ADF808000020ADF80400ADF80A00ADF8FB
:100B3000060001A90F4800F057F901210D4800F007
:100B4000D7F8012211460B4800F0F2F81E208DF86C
:100B5000000003208DF801008DF8020001208DF8BF
:100B600003006846FFF714FE0121024800F0C3F8B5
:100B70001FBD00000008004010B50121334800F0FF
:100B8000C6F8002860D00121304800F0B1F83048A4
:100B9000007830490978884220D000212E4A1180FF
:100BA000002008E02D49095C2B4A128811442A4A8A
:100BB0001180411C88B2274909788842F2DB274915
:100BC000095C254A12881144254A11802149097877
:100BD0001F4A11700021234A117000BF1E4800886F
:100BE0001F490988884222DA1F491B4A128831F8B6
:100BF000221088B21D49097800F0CAFC1A48164A2A
:100C0000128800EB8200408800EB80000122C2EBDA
:100C1000400081B20D4800F0E0F800210B4800F0E0
:100C2000E1F80D480088401C0B4908800CE00F4893
:100C30000178002000F0ACFC0A48007820B10020C8
:100C4000084908700249087010BD0000000C0040FF
:100C500028010020740000202601002075000020DB
:100C60002A0100207B000020FA3100087C000020CF
:100C70007FB505460C4601210820FFF7C3FDADF8FE
:100C80000850ADF804400020ADF80A00ADF80600A9
:100C900001A9104800F0A8F801210E4800F028F83A
:100CA000012211460B4800F043F832208DF8000075
:100CB00003208DF8010002208DF8020001208DF83C
:100CC00003006846FFF764FD0121024800F013F8B5
:100CD0007FBD0000000C004021B1028842F080027C
:100CE000028004E002884FF67F731A40028070474A
:100CF000CA430282704721B1028842F00102028099
:100D000004E002884FF6FE731A400280704730B547
:100D10000246002000230024158A05EA0103958974
:100D200005EA010413B10CB1012000E0002030BD40
:100D30001AB183890B43838102E083898B438381CA
:100D40007047000070B5002200230024058C4EF689
:100D5000FF7635400584038C8488828B48F6FF75C6
:100D60002A404FF6FF452A400D884FF6FF7606EAE7
:100D700005252A434DF6FF752B400D8906EA0535FA
:100D80002B434D8806EA05352B430B4DA84202D074
:100D90000A4DA84208D14BF6FF752C408D894FF6BD
:100DA000FF7606EA85152C4384808283CD88A0F8DF
:100DB0004050038470BD0000002C0140003401400D
:100DC0000A460021818B4FF2FF7319404FF6FF73E3
:100DD00003EA022319438183704781857047A0F895
:100DE0004010704781847047002202881D4B984252
:100DF0000ED01D4B98420BD0B0F1804F08D01B4B4A
:100E0000984205D01A4B984202D01A4B984204D10E
:100E10004FF68F731A404B881A43174B984207D0EE
:100E2000164B984204D04FF6FF431A40CB881A4322
:100E300002808B8883850B8803850A4B98420BD0F0
:100E4000094B984208D00E4B984205D00D4B984262
:100E500002D00D4B984201D10B7A03860123838285
:100E600070470000002C01400034014000040040A5
:100E700000080040000C004000100040001400403A
:100E800000400140004401400048014010B540F2DC
:100E900025511D4800F0A2F810B31B4800F0C8F817
:100EA000C4B21A48008800F40040C8B91748008846
:100EB00000F4804060B10A2C03D000201349088060
:100EC00020E01248008840F400401049088019E0F2
:100ED0000D2C06D10D48008840F480400B49088055
:100EE00010E00A480088C0F30D0009490C54074877
:100EF0000088401C0549088008460088132801DD49
:100F00000020088010BD0000003801405000002083
:100F10005801002010B540F22551134800F05EF84A
:100F200000B3114800F084F8C4B2104800781428C7
:100F300015DA0F480D49097844540C480078401CD4
:100F40000A49087001210B48FFF7D2FE0021094829
:100F5000FFF748FF01210748FFF7CDFE02E0002020
:100F60000249087010BD00000044004058000020F5
:100F7000440100200004004010B540F22551134800
:100F800000F02CF800B3114800F052F8C4B2104839
:100F90000078142815DA0F480D49097844540C4894
:100FA0000078401C0A49087001210B48FFF7A0FE99
:100FB00000210948FFF716FF01210748FFF79BFEB4
:100FC00002E000200249087010BD00000048004007
:100FD00056000020580100200004004070B5024671
:100FE000002400230025002040F66A16B14200D1FB
:100FF00000BFC1F3421501F01F03012606FA03F3F7
:10100000012D02D19689334006E0022D02D1168AC5
:10101000334001E0968A33400C12012606FA04F4AC
:101020001688344013B10CB1012000E0002070BDDF
:1010300001468888C0F30800704700BFFEE7000043
:101040000FB4084B10B504A902AA039800F01CF8CD
:10105000044602A9002000F048FA204610BC5DF8C2
:1010600014FB0000EB14000802E008C8121F08C1BE
:10107000002AFAD170477047002001E001C1121F19
:10108000002AFBD1704700002DE9FF4F8DB00F46BD
:101090000546002606E025280BD0DDE90F12904713
:1010A0006D1C761C28780028F5D111B03046BDE8BB
:1010B000F08F0024A246A1460122EC4900E004433F
:1010C00015F8013F203B02FA03F00842F7D12878D7
:1010D0002A2810D06FF02F022878A0F130010929BA
:1010E00014D80AEB8A0102EB410144F0020400EB40
:1010F000010A6D1CF0E701CF5FEA000A03D544F452
:101100000054CAF1000A44F002046D1C28782E280D
:1011100017D115F8010F44F004042A280ED06FF0FF
:101120002F022878A0F1300109290AD809EB89019A
:1011300002EB410100EB01096D1CF2E757F8049B3B
:101140006D1C28786C280FD006DC4C2817D0682836
:101150000DD06A2814D104E0742810D07A280FD159
:101160000DE044F400140AE044F4801401E044F477
:1011700040146978814202D104F580146D1C6D1C05
:101180002A786E2A1FD00CDC632A31D004DC002AB6
:101190008BD0582A11D1A3E0642A68D0692A0CD1D7
:1011A00065E0732A2ED004DC6F2A73D0702A04D134
:1011B0009BE0752A6FD0782A6ED01046DDE90F12B9
:1011C0009047761C50E1C4F30250022806D0032851
:1011D00009D0042801CF09D0066045E101CFF117FD
:1011E000C0E9006140E101CF06803DE106703BE1CE
:1011F00017F8040B8DF8000000208DF80100EB4675
:10120000012003E057F804BB4FF0FF3061074FF0B7
:10121000000102D40DE008F10101884649450FDACA
:101220008045F8DB1BF808100029F4D108E008F12C
:10123000010188468142FADB1BF808100029F6D12B
:10124000DDE90F23AAEB08008146214600F036F9BC
:10125000304400EB080604E0DDE90F121BF8010B37
:101260009047B8F10108F7D221464846F7E00A2135
:10127000C4F302534FF0000B0891022B04D001CFAE
:10128000C117032B09D00AE0FF1D27F00707F7E875
:10129000020108E032E01FE020E000B2C117042B99
:1012A00001D140B2C117031E71F1000307DA4FF0FC
:1012B000000CD0EB0C006CEB01012D2302E02305A8
:1012C00004D52B238DF82430012303E0E30701D05C
:1012D0002023F7E7984658E00A2110E010210EE09D
:1012E00010204FF0000B08900CE010214FF0000B85
:1012F00044F004044FF00809089103E008214FF07E
:10130000000B0891C4F30253022B04D001CF00213B
:10131000032B06D006E0FF1D27F00707F7E80201C0
:1013200003E080B2042B00D1C0B24FF000082307C5
:101330002BD5702A07D0DDF820C08CF0100C5CEAA9
:101340000B0C05D00EE040238DF82430012308E07B
:1013500050EA010306D030238DF824308DF8252083
:1013600002239846DDF820C08CF0080C5CEA0B0CD8
:101370000BD150EA010301D1630706D530238DF864
:1013800024304FF00108A9F10109582A04D038A2ED
:101390000B9208AA0A920BE03AA2F9E75B46089A78
:1013A000FEF70DFF0B9B9B5C0A9A521E0A9213706C
:1013B00050EA0102F2D10A98ADEB000000F1200BD7
:1013C000600702D524F4803401E04FF00109D945CB
:1013D00002DDA9EB0B0000E0002000EB0B01414413
:1013E0000890AAEB010AE00306D4DDE90F232146A9
:1013F000504600F063F806444FF0000908E009A9E0
:1014000011F80900DDE90F12904709F10109761C76
:10141000C145F4DBE0030CD5DDE90F23214650463E
:1014200000F04CF8064404E0DDE90F12302090474C
:10143000761C0899481E08900029F5DC08E00A98F7
:101440000A990078491C0A91DDE90F129047761C31
:10145000BBF10001ABF1010BF1DC21465046DDE9A7
:101460000F2300F019F806446D1C1BE60928010043
:10147000303132333435363738396162636465660A
:1014800000000000303132333435363738394142CC
:1014900043444546000000002DE9F0410446002584
:1014A0001E461746880404D405E039462020B0477C
:1014B0006D1C641EF9D52846BDE8F0812DE9F04188
:1014C000044600251E469046C80301D5302700E09B
:1014D0002027880404D505E041463846B0476D1CF6
:1014E000641EF9D52846BDE8F0810A68531C0B60DC
:1014F000107070471CB504200C49087001200C497D
:1015000008700C480078401C0A4908700A480078A6
:10151000401C09490870082000900A2301900846E1
:1015200002780221382000F01FFC1CBD740000204E
:101530007B000020300000201E0000201CB502208F
:101540000B49087001200B4908700B4800680B49D3
:101550000978084408490860082000900A2301908F
:10156000084606210268382000F0FEFB1CBD000082
:10157000740000207B0000202000002024000020B8
:1015800010B500210148FFF72AFC10BD00040040FF
:1015900070B504460E467A2C03DD44F62060844282
:1015A00002DDFFF7EDFF0DE0074890FBF4F0451E6C
:1015B000A9B20648FFF711FC25FA06F081B20348EC
:1015C000FFF70DFC70BD000000127A00000400401F
:1015D00010B56FF00400FFF7ABF90A4800680A493C
:1015E000B0FBF1F0094908700846007800EB4001B3
:1015F000C1EBC0104FF6FF7101EAC000044908803A
:1016000010BD00003400002000127A0048000020C5
:101610004A0000200146114A12884A434FF0E02355
:101620005A6100229A611A46126942F001021A6157
:1016300000BF4FF0E022106900F001021AB100F47F
:101640008032002AF5D04FF0E022126922F0010228
:101650004FF0E0231A6100229A6170474A0000208F
:101660000146114A12784A434FF0E0235A610022A2
:101670009A611A46126942F001021A6100BF4FF0E6
:10168000E022106900F001021AB100F48032002A51
:10169000F5D04FF0E022126922F001024FF0E02372
:1016A0001A6100229A617047480000202DE9F0413C
:1016B00006460D462846FEF77BFD87B2002400BF94
:1016C0001CE0307804EB4401695C484068B97078EC
:1016D00004EB4401491C695C484030B9B17804EB23
:1016E0004400801C285C414009B1012000E000203A
:1016F00010B92046BDE8F081601CC4B2032097FBFE
:10170000F0F0A042DDDC0020F4E770B506460024CE
:1017100015E004F1B001C8B200F02EFC002000F08A
:101720002BFC102000F028FC002504E0304600F0DF
:1017300039FC681CC5B2802DF8DB601CC4B2082CD3
:10174000E7DB70BD08B501210420FFF76BF890209E
:10175000ADF8000003208DF8020010208DF8030082
:1017600069461B48FEF760FE1020ADF8000014200B
:101770008DF8030069461648FEF756FE902114487E
:10178000FEF7E6FE6420FFF745FF10211048FEF744
:10179000E1FE4020ADF8000014208DF803006946FA
:1017A0000B48FEF741FE40210948FEF7D3FE012118
:1017B0000420FFF737F82020ADF800006946044800
:1017C000FEF732FE20210248FEF7C4FE08BD0000ED
:1017D0000008014010B5812000F0CEFBFF2000F092
:1017E000CBFBA12000F0C8FBC82000F0C5FB8D207A
:1017F00000F0C2FB142000F0BFFBAF2000F0BCFBE8
:1018000010BD00001CB505201349087001201349C4
:10181000087000201249087012480078401C1149D5
:101820000870084600780E2801DD0E2008700E486A
:101830000C4A127830F812104FF08040FFF7CDFAC2
:10184000082000900A2301900648027804213820DD
:1018500000F08AFA1CBD0000740000207B0000200C
:101860003100002024000020000000200321062079
:1018700000F032F941F61F410920FFF7F9F908217C
:101880004FF6FE70FFF7EAF8FEF752FFFEF766FE2E
:10189000FFF79EFEFFF756FFFFF79CFF00F026F9CB
:1018A000FFF738F9FEF77AFD00F0C6FA4049414AE1
:1018B000127831F8120041F61F41FFF78FF875E0FA
:1018C0003D480078002852D03C48007890B1002074
:1018D0003A49087000F082F83949087008460078E3
:1018E000FEF71CFD00214FF08040FFF77BFA00203F
:1018F000344908703348007838B100203149087005
:1019000001202E49087000F0F5FA0020FEF74CFE89
:101910002D49087008460078002847D00120274943
:10192000087000218007FFF75DFA274800782449F6
:101930000978884218D1FFF701FE24480068642125
:10194000B0FBF1F022490978884202D1FFF7D2FDBD
:101950002CE018480078401CC0B2164908700A28CC
:1019600024DDFFF74FFF21E000F0C4FA1EE0FEF790
:10197000B3FC0320174908700020FEF715FE092864
:1019800014D104201349087000F0B0F800F054FAA4
:101990000748114A127830F812104FF08040FFF7D4
:1019A0001CFA00214FF08040FFF71CFA88E7000086
:1019B00000000020310000201E0000202500002033
:1019C0002700002026000020280000202000002002
:1019D00030000020740000202400002070B5002595
:1019E00008480068FEF7CAFBFEF7BEFB0446C017B6
:1019F00004EB5070C010A4EBC000401CC5B22846D8
:101A000070BD00002C00002070B5044600F04AF8BC
:101A100000251DE004F0800020B140210E48FEF7B3
:101A200099FD03E040210C48FEF792FD6006040E8C
:101A300020210948FEF78EFD0120FFF711FE20212D
:101A40000548FEF785FD0120FFF70AFE681CC5B2B8
:101A5000082DDFDB70BD00000008014070B50446B2
:101A60000D4605F1B001C8B200F086FA102141EA36
:101A7000141000F081FA04F00F0000F07DFA70BD40
:101A800008B501210820FEF7CDFE4020ADF800008A
:101A900048208DF8030069460148FEF7C5FC08BDE3
:101AA0000008014008B501210420FEF7BBFE4020DC
:101AB000ADF8000014208DF8030003208DF802001B
:101AC00069460448FEF7B0FC40210248FEF742FD9B
:101AD00008BD000000080140024A1070024A11705F
:101AE000704700007C0000207400002003200A4999
:101AF0000870002009490870094908600120094957
:101B000008700949087000200849087008490870E1
:101B100001200849087070471E000020270000209F
:101B200020000020240000202500002026000020A6
:101B300031000020300000202DE9F04706460F4616
:101B400090469A467F2E01DC072F01DD00260027F4
:101B5000002530E005EB450101EB08001B49FFF7CC
:101B6000A5FD8146102101FB0561C8B23946FFF78A
:101B700075FF002407E0164901EB4911085D00F0EC
:101B800011FA601CC4B2102CF5DB7A1CD1B2102201
:101B900002FB0562D0B2FFF761FF102407E00C4999
:101BA00001EB4911085D00F0FDF9601CC4B2202C66
:101BB000F5DB681CC5B24046FEF7FAFA0321B0FB1C
:101BC000F1F0A842C6D8BDE8F08700005B00002015
:101BD000FA2700082DE9F04780460D4691461E463B
:101BE000A9F12000C7B2B8F17F0F01DC072D02DD9B
:101BF0004FF000080025082E21D129464046FFF766
:101C00002DFF002407E0194901EB0711085D00F0E2
:101C1000C9F9601CC4B2082CF5DB681CC1B240468F
:101C2000FFF71CFF082407E0104901EB0711085DCE
:101C300000F0B8F9601CC4B2102CF5DB13E0062EDE
:101C400011D129464046FFF709FF002409E007EBC0
:101C50004701074A02EB4101085D00F0A3F9601C4F
:101C6000C4B2062CF3DBBDE8F08700000A220008AE
:101C7000D01F00082DE9F04782460F4615469846CA
:101C8000DDF82090002655E039467A1CD7B2504640
:101C9000FFF7E4FE06FB05F084B245E0B9F10B0F57
:101CA0003ED2DFE809F0060B10151A1F24292E3347
:101CB00038002249085D00F075F932E02049085DDE
:101CC00000F070F92DE01F49085D00F06BF928E085
:101CD0001D49085D00F066F923E01C49085D00F02D
:101CE00061F91EE01A49085D00F05CF919E0194934
:101CF000085D00F057F914E01749085D00F052F94B
:101D00000FE01649085D00F04DF90AE01449085D3E
:101D100000F048F905E01349085D00F043F900E0E0
:101D200000BF00BF601C84B206FB0550A042B5DCBA
:101D3000701C86B24645A7DBBDE8F087FA2800088C
:101D4000FA2C00087A2D0008FA2D00087A2E0008D7
:101D5000FA2E00087A2F0008FA2F00087A300008BF
:101D6000FA3000087A3100082DE9F04788B00646BD
:101D7000884691461D46DDE910A700241C2101A8D4
:101D8000FEF70BFA0A2D05D14A461DA101A8FFF75F
:101D900057F914E0102D05D14A461AA101A8FFF702
:101DA0004FF90CE0082D05D14A4617A101A8FFF70D
:101DB00047F904E04A4612A101A8FFF741F901A83A
:101DC000FEF7F6F9C4B204E0202001A90855601C12
:101DD000C4B25445F8DB00240BE02046611CCCB2B1
:101DE00001A90A5C3B4641463046FFF7F3FEF01975
:101DF000C6B201A8005D0028EFD108B0BDE8F087A9
:101E00002564000025580000256F00002DE9F041F1
:101E100005460F4614461E4608E014F8012B3346CB
:101E200039462846FFF7D6FEA819C5B22078002803
:101E3000F3D1BDE8F08100001CB5082000900A2312
:101E400001900D48027802213820FFF78DFF08200D
:101E500000900A2301900948027804213820FFF7F6
:101E600083FF082000900A2301900548062102689C
:101E70003820FFF779FF1CBD1E0000202400002041
:101E80002000002010B5FFF70DFE20210A48FEF7C4
:101E900061FB40210848FEF75DFB0120FFF7E0FBF6
:101EA00040210548FEF754FB0120FFF7D9FB202114
:101EB0000148FEF74DFB10BD0008014010B5FFF7CB
:101EC000F1FD40210A48FEF743FB20210848FEF7B8
:101ED00041FB0120FFF7C4FB40210548FEF73AFB18
:101EE0000120FFF7BDFB20210148FEF731FB10BDAB
:101EF000000801401CB50120094908700949087013
:101F000009480078401E08490870082000900A23FC
:101F100001900846027802213820FFF725FF1CBDFA
:101F2000740000207B0000201E00002010B500245B
:101F3000FFF7A6FD20210F48FEF70CFB0DE0601C0B
:101F4000C0B20446322805DD20210A48FEF700FB16
:101F5000002010BD0120FFF783FB40210548FEF75C
:101F6000EEFA0028EBD120210248FEF7F1FA012019
:101F7000EFE700000008014010B50446FFF782FFBC
:101F80007820FFF741FDFFF7D1FF0020FFF73CFD70
:101F9000FFF7CCFF2046FFF737FDFFF7C7FFFFF73E
:101FA0008DFF10BD10B50446FFF76CFF7820FFF7DA
:101FB0002BFDFFF7BBFF4020FFF726FDFFF7B6FF25
:101FC0002046FFF721FDFFF7B1FFFFF777FF10BDB8
:101FD00000000000000000004C400000000202026F
:101FE0000000207C28283E20006C4A7424000C52FB
:101FF0003C7C5270304C7A6C504000020000000073
:102000000000007C820000423C00000000183810F4
:10201000180000001018100000C0000000000808A0
:1020200008080808004000000000004030080600D2
:10203000007C42427C000000447C0000006462524C
:102040004C000064424A7C000010287C2000006C98
:102050004C4C7000007C4A4A74000004641C04006C
:10206000007C4A527C00005C52523C000000484810
:1020700000000000C80000000018282442000018DA
:1020800018181800004224281800000462520C009E
:1020900018647A566C1840301C1C7000007C545434
:1020A0005C20186442424224007C44442418007C92
:1020B00054544400007C14141C043844424264000C
:1020C000007C10107C0000007C440000808080FCBC
:1020D0000400007C08344000007C40404000704C0C
:1020E00070107C00007C08103C00186442424438A8
:1020F000007C14140C0438446242C438007C14146C
:102100006C00004C4A52740004047C040404007CFB
:1021100040407C00000C30300C00003C143C1C049F
:102120000044283844000004780804000064544C3B
:1021300044000000FE82800000060830400000805D
:1021400082FE00000001010101008080808080800B
:10215000000101000000006058587040007E4848AF
:102160007000007048484000007048487E40007091
:102170006868500000087C0C0C0000F0E8E8D80803
:10218000007E080870000008784000000080808809
:102190007A00007E1038480000007E400000784839
:1021A000487048700878080870000070484870004F
:1021B00008F84848700000704848F0000848700867
:1021C000080000505868680000087C4848000878FB
:1021D000404078400818202018000838283838086F
:1021E0000048383848000098A0601808004868582F
:1021F00048000000007E8000000000FF000000801A
:102200007E0000000001010202000000000000004A
:1022100000000000000000000000000000F80000C6
:102220000000000000330000000000100C02100C41
:10223000020000000000000000000040C07840C024
:10224000780000043F04043F040000708888FC0804
:10225000300000182020FF211E00F008F0806018D8
:10226000000000310C031E211E0000F008887000E1
:1022700000001E21232C1927211000120E0000003F
:1022800000000000000000000000000000E0180452
:102290000200000000071820400000020418E000BF
:1022A00000000040201807000000404080F08040FF
:1022B00040000202010F0102020000000000E000E5
:1022C0000000000101010F010101000000000000F9
:1022D00000000090700000000000000000000000FE
:1022E00000000001010101010100000000000000E8
:1022F0000000003030000000000000000000C03886
:102300000400006018070000000000E0100808103A
:10231000E000000F102020100F0000001010F80047
:102320000000000020203F2020000070080808085E
:10233000F0000030282422213000003008080888EE
:1023400070000018202121221C000000804030F87D
:10235000000000060524243F242400F8888888080B
:1023600008000019202020110E0000E0108888903D
:102370000000000F112020201F00001808088868A6
:1023800018000000003E0100000000708808088866
:102390007000001C222121221C0000F008080810F7
:1023A000E0000001122222110F00000000C0C00056
:1023B000000000000030300000000000008000003D
:1023C0000000000000E0000000000000804020103D
:1023D0000800000102040810200000404040404076
:1023E00040000002020202020200000810204080A9
:1023F000000000201008040201000070480808884E
:1024000070000000003037000000C030C828E8101D
:10241000E000071827282F2817000000C038E00028
:102420000000203C23020227382008F888888870A2
:102430000000203F202020110E00C03008080808AE
:102440003800071820202010080008F80808081095
:10245000E000203F202020100F0008F88888E808BE
:102460001000203F20202320180008F88888E80862
:102470001000203F200003000000C030080808388A
:10248000000007182020221E020008F8080000089B
:10249000F808203F210101213F20000808F8080822
:1024A00000000020203F2020000000000808F8085D
:1024B0000800C08080807F00000008F888C02818CD
:1024C0000800203F20012638200008F808000000FE
:1024D0000000203F20202020300008F8F800F8F805
:1024E0000800203F013E013F200008F830C00008EE
:1024F000F808203F200007183F00E01008080810E7
:10250000E0000F10202020100F0008F8080808082D
:10251000F000203F210101010000E0100808081030
:10252000E0000F10282830504F0008F8888888886D
:102530007000203F2000030C30200070880808083D
:1025400038000038202121221C00180808F808084B
:1025500018000000203F2000000008F808000008D4
:10256000F808001F202020201F000878880000C8DD
:102570003808000007380E01000008F800F800F8DD
:10258000080000033E013E030000081868808068D0
:10259000180820302C03032C30200838C800C83815
:1025A00008000000203F2000000010080808C8387C
:1025B00008002038262120201800000000FE02021A
:1025C00002000000007F40404000000438C00000CE
:1025D0000000000000010638C00000020202FE00F8
:1025E0000000004040407F000000000004020204A0
:1025F00000000000000000000000000000000000DB
:1026000000008080808080808080000202040000C2
:10261000000000000000000000000000808080003A
:10262000000000192424123F200010F000808000D8
:102630000000003F112020110E000000008080806B
:102640000000000E112020201100000080808090EA
:10265000F000001F202020103F200000808080809C
:102660000000001F242424241700008080E09090A4
:1026700020000020203F202000000000808080807B
:102680008000006B94949493600010F00080808030
:102690000000203F210000203F200080989800008B
:1026A00000000020203F20200000000000809898BB
:1026B000000000C08080807F000010F0000080805B
:1026C0008000203F240629302000001010F8000070
:1026D00000000020203F202000008080808080803B
:1026E0008000203F20003F20003F808000808080CD
:1026F0000000203F210000203F20000080808080DB
:102700000000001F202020201F008080008080000B
:10271000000080FF912020110E000000008080004A
:102720008000000E11202091FF808080800080803A
:10273000800020203F212000010000008080808058
:1027400080000033242424241900008080E080804D
:1027500000000000001F202010008080000000808A
:102760008000001F202020103F208080800080807B
:10277000800000030C300C0300008080008080008B
:102780008080010E300C07380601008080800080B8
:1027900080000020310E2E312000808080000080DB
:1027A000808000818678180601000080808080800B
:1027B00080000021302C222130000000000000FCAD
:1027C000020200000000013E404000000000FF0047
:1027D000000000000000FF0000000202FC000000FA
:1027E000000040403E01000000000002010202041F
:1027F00002000000000000000000000000E00000F7
:1028000000FF00000020408000000804030000409A
:10281000807F0000000000010E001010D0FF90101B
:102820000202FE0202625AC60000040300FF0043D7
:10283000308F80432C102C438000100C8444B4A4AF
:10284000252624A4642404140C00040404FA4A4A2F
:102850004949494A4AFA04040400101010FF109034
:1028600004040404FC04040404000444827F010002
:10287000000040807F0000000000202020FF20207A
:1028800080F88040FF2010F000001030100F080882
:10289000003F40405F424443780000007E4A4A497E
:1028A0004040404A4A4A7E0000000000FF80491232
:1028B00000FF804912003F40F00000100C057654E4
:1028C0005457D4D4F685140C000000101515155576
:1028D000957F14141414141000001010D0FF9010E1
:1028E00000FE020202FE00000000040300FF00835D
:1028F000601F0000003F4040780000000000000022
:1029000000000000000000000000000000000000C7
:10291000000000000000808080C0E0E0F0F0F0F0F7
:10292000F8F8F8F8F8F8F8F8F8FCFCFCFCFCFCFC0B
:10293000FCFCFCFCF8F8F8F8F8F8F8F8F8F8F8F807
:10294000F8F8F0F0F0F0F0F0F0F0F0F0E0E0E0E0B7
:10295000E0E0E0E0E0E0E0E0C0C0C0C0C0C0C0C077
:102960000000000000000000000000000000000067
:102970000000000000000000000000000000000057
:10298000000000000080C0E0F8FCFCFEFEFEFEFC43
:10299000FE3EBEBF3F7F7FFFFFFFFFFFFFFFFFFF4A
:1029A000FFFFFFFFFFFFFFFFFFFFFFFFFFFFFFFF37
:1029B000FFFFFFFFFFFFFFFFFFFFFFFFFFFFFFFF27
:1029C000FFFFFFFFFFFFFFFFFFFFFFFFFFFFFFFF17
:1029D000FFFFFFFFFFFFFFFFFFFFFFFFFFFFFBFB0F
:1029E000FFFFFEFCFCF8E0C000000000000000005B
:1029F00000000000000000000000000000000000D7
:102A00000000F8FCFFFFFFFFFFFFFFFFF7E38381FC
:102A10008080000000000000000101030F0F1F1F55
:102A20003F3F7F7FFFFFFFFFFFFFFFFFFFFFFFFF36
:102A3000FFFFFFFFFFFFFFFFFFFFFFFFFFFFFFFFA6
:102A4000FFFFFFFFFFFFFFFFFFFFFFFFFFFFFFFF96
:102A5000FFFFFFFFFFFFFFFFFFFFFFFFFFFFFFFF86
:102A6000FFFFFFFFFFFFF3F0F07870600000000051
:102A70000000000000000000000000000000000056
:102A80000000F9FFFFFFFFFFFFFFFFFFFFFFFFFF5A
:102A9000FFFFFFFFFEFEFEFCFCF8F8F0F0E0E0C0F8
:102AA000C0808206060D0D5BFBB77F6FDFDFBFBF07
:102AB0007FFFFFFFFFFFFFFFFFFFFFFFFFFFFFFFA6
:102AC000FFFFFFFFFFFFFFFFFFFFFFFFFF7F7F7F96
:102AD0007F7F7F7F7F7F7F7F7F7F7F7FFFFFFFFF06
:102AE000FFFFFFFFFFFFFDFFFFFFFCFCE40C6C643A
:102AF000666600000000000000000000000000000A
:102B000000FCFFFFFFFFFFFFFFFFFFFFFFFFFFFFD7
:102B1000FFFFFFFFFFFFFFFFFFFFFFFFFFFFFFFFC5
:102B2000FFFF7F3F1F1E0E0C80C0C0E0E0E0E1E130
:102B3000E1E1E1E1E1F1F1F1F1F0F1F1F1F0F0F0D9
:102B4000F0F0F0F0F0F0F0F8F8F8F8F8F8F8F8F83D
:102B5000F8F8F8F8F8F8F8F8F8F8F8F8F8F8F8F8F5
:102B6000F8F8FDFDFDFDFFFFFFFFFDFFFEEEE64671
:102B70000002060600000000000000000000000047
:102B8000387FFFFFFFFFFFFFFFFFFFFFFFFFFFFF9C
:102B9000FFFFFFFFFFFFFFFFFF7F3F1F0F07030147
:102BA000C0C0E0F0F8FCFEFFFFFFFFFFFFFFFFFFEC
:102BB000FFFFFFFFFFFFFFFFFFFFFFFFFFFFFFFF25
:102BC000FFFFFFFFEFEFFFFFFFFFFFFFFFFFFFFF35
:102BD000FFDFFFFFFFFFFF3FFFFFFFFF7FFFFFCF95
:102BE000FFFFFFFF1F1FFFF7FF3F33010506000038
:102BF00000000000000000000000000000000000D5
:102C000000000001030F0F3F7FFFFFFFFFFFFFFFEB
:102C1000FFE7E7E7E3E3E1E1E0E0E0F0F8FCFEFFF7
:102C2000FFFFFFFFFFFFFFFFFFFFFFFFFFFFFFFFB4
:102C3000FFFFFFFFFFFFFFFFFFFFFFFFFFFFFFFFA4
:102C4000FFFFFFFFFFFFFFFFFFFFFFFFFFFF6E8E96
:102C5000EEFFFFFFFFFFEDFCFFFFFFF873FFFF7BC1
:102C6000FBE3F9FBE00001E0C14060000000000070
:102C70000000000000000000000000000000000054
:102C800000000000000000000000010303031B3BE4
:102C90003F3F1F1F1F1F1F1F1F1F1F1F0F0F0F0F44
:102CA0000F0F1F0F0F0F1F1F1F1F1F1F1F1F1F0F94
:102CB0001F3F0F0F0F0F3F3F1F3F3F3F1F7F3F7FC4
:102CC0003F3F3F3F6F7F3F3F5F7F7F1F1F070001F9
:102CD000F72F1F27010707050F0D1F1F3C3F030399
:102CE000030D0C07000000010000000000000000C0
:102CF00000000000000000000000000000000000D4
:102D0000000080C0E0F0F8FCFCFCFCFCFCF8F0E00B
:102D1000C080000000000000000000000000F8FC7F
:102D2000FEFFFF7F3F1F0FFFFFFFFFFF070F1F3F4C
:102D30007FFFFFFEFCF80000000000000000000024
:102D400000000000000000FFFFFFFFFF0000000088
:102D50000000000000000000000000000000000073
:102D6000000000000000003F3F3F3F3F0000000028
:102D70000000000000000000000000000000000053
:102D80000000000000000000FCFCFCFCFC00000057
:102D90000000000000000000000000000000000033
:102DA0000000000000000000FFFFFFFFFF00000028
:102DB00000000000000000000000000000001F3FB5
:102DC0007FFFFFFEFCF8F0E0FFFFFFFFFFF0F8FCE5
:102DD000FEFFFF7F3F1F000000000000000000001A
:102DE00000000103070F1F3F3F3F3F3F3F1F0F07FB
:102DF00003010000000000000000000000000000CF
:102E0000000080C0E0F0F0F0F0F0000000000000F2
:102E1000000000000000000000000000E0F0F8FCEE
:102E2000FEFFFFFFFFDFCFC7C3C1C0C0C0C0C0C02F
:102E3000C0C0C0C0C0C0C0C000000000070F1F3F1E
:102E40007FFFFFFFFFFFF7E7C787070707070707B2
:102E5000070707070707070700000000000000003A
:102E600000000103070F0F0F0F0F0000000000000C
:102E70000000000000000000000000000000000052
:102E800000000000000000000000F0F0F0F0F0E0B2
:102E9000C08000000000000000000000E0E0E0E072
:102EA000E0E0E0E0E0E0E0E0E0E0E1E3E7EFFFFFCA
:102EB000FFFFFFFEFCF8F0E0000000000303030347
:102EC0000303030303030303030383C3E3F3FBFFCE
:102ED000FFFFFF7F3F1F0F07000000000000000002
:102EE000000000000000000000000F0F0F0F0F0790
:102EF000030100000000000000000000000080C08E
:102F0000E0F0F8F87C7C3C3C3C3C3C3C3C3C7C7C31
:102F1000F8F8F0E0C080000000000000FCFFFFFFB8
:102F20000F0301000080F0FEFE3F7FFEFEE0000088
:102F30000001030FFFFFFFFC000000003FFFFFFF49
:102F4000F0C08000787F7F3F0707070F7F7F7E708C
:102F50000080C0F0FFFFFF3F000000000000010301
:102F6000070F1F1F3E3E3C3C3C3C3C3C3C3C3E3E35
:102F70001F1F0F070301000000000000000080C0B9
:102F8000E0F0F8F87C7C3C3C3C3C3C3C3C3C7C7CB1
:102F9000F8F8F0E0C080000000000000FCFFFFFF38
:102FA0000F03010000FEFEFFCFCFCEFEFEFE7C0031
:102FB0000001030FFFFFFFFC000000003FFFFFFFC9
:102FC000F0C08000007F7F7F7171717B7F3F1F00A9
:102FD0000080C0F0FFFFFF3F000000000000010381
:102FE000070F1F1F3E3E3C3C3C3C3C3C3C3C3E3EB5
:102FF0001F1F0F070301000000000000000080C039
:10300000E0F0F8F87C7C3C3C3C3C3C3C3C3C7C7C30
:10301000F8F8F0E0C080000000000000FCFFFFFFB7
:103020000F03010000E0FCFEFE1E0F0F0E0E0E004F
:103030000001030FFFFFFFFC000000003FFFFFFF48
:10304000F0C0800000071F3F7F78707070783800F4
:103050000080C0F0FFFFFF3F000000000000010300
:10306000070F1F1F3E3E3C3C3C3C3C3C3C3C3E3E34
:103070001F1F0F070301000000000000000080C0B8
:10308000E0F0F8F87C7C3C3C3C3C3C3C3C3C7C7CB0
:10309000F8F8F0E0C080000000000000FCFFFFFF37
:1030A0000F03010000FEFEFF0F0F0F1EFEFCF800D5
:1030B0000001030FFFFFFFFC000000003FFFFFFFC8
:1030C000F0C08000007F7F7F7070787C3F3F1F00E2
:1030D0000080C0F0FFFFFF3F000000000000010380
:1030E000070F1F1F3E3E3C3C3C3C3C3C3C3C3E3EB4
:1030F0001F1F0F070301000000000000000080C038
:10310000E0F0F8F8FCFCFCFCFCFCFCFCFCFCFCFC2F
:10311000F8F8F0E0C080000000000000FCFFFFFFB6
:10312000FFFFFFFFFFFFFFFFFFFFFFFFFFFFFFFFAF
:10313000FFFFFFFFFFFFFFFC000000003FFFFFFF5E
:10314000FFFFFFFFFFFFFFFFFFFFFFFFFFFFFFFF8F
:10315000FFFFFFFFFFFFFF3F000000000000010333
:10316000070F1F1F3F3F3F3F3F3F3F3F3F3F3F3F17
:103170001F1F0F070301000000000000000080C0B7
:10318000E0F0F8F8FCFCFCFCFCFCFCFCFCFCFCFCAF
:10319000F8F8F0E0C080000000000000FCFFFFFF36
:1031A000FFFF0F0703010000000000000000010303
:1031B000070FFFFFFFFFFFFC000000003FFFFFFFC6
:1031C000FFFFF0E0C080000000000000000080C0B1
:1031D000E0F0FFFFFFFFFF3F0000000000000103E1
:1031E000070F1F1F3F3F3F3F3F3F3F3F3F3F3F3F97
:1031F0001F1F0F070301000000000B024B005D01C1
:103200004B004A0125000601250000002500170497
:103210004B0097044B0027054B00000025000B02D4
:10322000F4014B02F4019302F4010B02F4010B02CE
:10323000F4014B02F4019302F4010B02F401930236
:10324000F401BA02F4011003F4010000F401930246
:10325000F401BA02F4011003F4010000F4011003B8
:10326000FA007003FA001003FA00BA02FA0093029F
:10327000F4010B02F4011003FA007003FA001003CA
:10328000FA00BA02FA009302F4010B02F4010B02F5
:10329000F4018801F4010B02F4010000F4010B02B7
:1032A000F4018801F4010B02F4010000F40120068E
:1032B000FA0027057D0017047D009704FA0010032B
:1032C000FA0010037D00DC037D0097047D00750586
:1032D0007D002705FA001704FA000000F4010B0234
:1032E0004B004B024B0000004B009302FA000B0214
:1032F0004B004B024B0000004B009302FA0093027C
:103300004B00BA024B0000004B001003FA0093027E
:103310004B00BA024B0000004B001003FA00BA0247
:103320004B0010034B0000004B007003FA00BA0280
:103330004B0010034B0000004B007003FA00100319
:103340004B00DC034B0000004B001704FA00100395
:103350004B00DC034B0000004B001704FA00000098
:10336000FA00000084330008000000203001000053
:10337000820200083C3400083001002040040000B4
:103380007810000850201F4E973ADF2E0F273F1F5E
:103390006F1787139F0FB70BCF0707073F067705F8
:1033A000AF04E70303A30101390B7CA24A04100018
:1033B000081202030406070809301A01E5B08FE677
:1033C0009E81E5AEA2E68993E59CB0E9BCA0E68EBD
:1033D0008CE69CBA360504240C21282B0601260114
:1033E0004A015D018801B801EE010B024B02930214
:1033F000BA0210037003DC03170497042705750550
:103400002006E006B807285A72283A2A285AE428E3
:103410003A55285AC8282BA908285A9F283A6E28B6
:103420005A3F283ADD283A7D281A01CA4978BAD28B
:0C34300078BAA4783A492839F4710000F9
:0400000508000145A9
:00000001FF
